:100000000C9434000C9451000C9451000C94510049
:100010000C9451000C9451000C9451000C9451001C
:100020000C9451000C9451000C9451000C94E2007B
:100030000C9451000C9451000C9451000C945100FC
:100040000C94F1000C9451000C9451000C9451004C
:100050000C9451000C9451000C9451000C945100DC
:100060000C9451000C94510011241FBECFEFD8E026
:10007000DEBFCDBF11E0A0E0B1E0E0E4F2E002C0FD
:1000800005900D92AC30B107D9F721E0ACE0B1E0BA
:1000900001C01D92A031B207E1F70E949C000C94B0
:1000A0001E010C940000E82FF0E0EF5FFE4F80810E
:1000B00088B986FF04C085B1806185B9089585B18E
:1000C0008F7E85B9089595B19C7F95B99091000177
:1000D0009130E1F49DEC899F812D112486958695C0
:1000E0008695899F912D1124969596959695990FB1
:1000F000292F220F220F920F891B0E94530085B1D6
:10010000826085B982E08093000108959DEC899F0B
:10011000912D1124969596959695990F292F220F3A
:10012000220F920F891B0E94530085B1816085B90F
:1001300081E0809300010895CF93DF9300D000D039
:10014000CDB7DEB70E940C019FEF94B984B18F77D1
:1001500084B997B985B1816085B98AE089831A82AB
:100160001B821C8280910C01882329F089810E94C6
:10017000630010920C018B81882321F01F9B02C029
:100180001B820BC08B81811108C01F9906C0198288
:100190008C818F5F8C8381E08B8387EA91E6019766
:1001A000F1F700C000008A818F5F8A838A818431E1
:1001B00020F01A8289818F5F89838981843690F249
:1001C0001982D0CF1F920F920FB60F9211248F93E6
:1001D00081E080930C018F910F900FBE0F901F90C4
:1001E00018951F920F920FB60F9211248F939F9321
:1001F00080910F01882349F080910D0190910E01AB
:10020000019690930E0180930D019F918F910F9015
:100210000FBE0F901F901895109280008DE0809374
:10022000810083E190E09093890080938800EFE65D
:10023000F0E080818260808378940895F894FFCF05
:0C024000013F065B4F666D7D077F670085
:00000001FF
