S00E00005072656C61622E73726563C0
S11300000C9434000C943E000C943E000C943E007E
S11300100C943E000C943E000C943E000C943E0064
S11300200C943E000C943E000C943E000C943E0054
S11300300C943E000C943E000C943E000C943E0044
S11300400C943E000C943E000C943E000C943E0034
S11300500C943E000C943E000C943E000C943E0024
S11300600C943E000C943E0011241FBECFEFD8E048
S1130070DEBFCDBF0E9447000C9461000C940000C9
S113008080E284B98FEF87B98AB915B80895CF9300
S1130090DF931F92CDB7DEB70E94400019821F9BE9
S11300A00DC085B1806285B92FE784E89EE12150B7
S11300B080409040E1F700C00000F1CF85B115B851
S10900C0EECFF894FFCF1F
S9030000FC
