S00E00005072656C61622E73726563C0
S11300000C9434000C943E000C943E000C943E007E
S11300100C943E000C943E000C943E000C943E0064
S11300200C943E000C943E000C943E000C943E0054
S11300300C943E000C943E000C943E000C943E0044
S11300400C943E000C943E000C943E000C943E0034
S11300500C943E000C943E000C943E000C943E0024
S11300600C943E000C943E0011241FBECFEFD8E048
S1130070DEBFCDBF0E9447000C9465000C940000C5
S113008080E284B98FEF87B98AB915B80895CF9300
S1130090DF931F92CDB7DEB70E94400019821F9BE9
S11300A00AC085B1806285B987EA91E60197F1F7C4
S11300B000C00000F4CF85B18F7D85B987EA91E651
S11100C00197F1F700C00000EACFF894FFCFDB
S9030000FC
