S016000041546D6567612074657374696E672E73726563C1
S11300000C9434000C9446000C9446000C94460066
S11300100C9446000C9446000C9446000C94460044
S11300200C9446000C9446000C9446000C94460034
S11300300C9446000C9446000C9446000C94460024
S11300400C9446000C9446000C9446000C94460014
S11300500C9446000C9446000C9446000C94460004
S11300600C9446000C94460011241FBECFEFD8E038
S1130070DEBFCDBF21E0A0E0B1E001C01D92AE37EC
S1130080B207E1F70E9400010C9494010C94000063
S1130090E2ECF0E090819F739083A1ECB0E09C913E
S11300A09B7F9C93908194609083908192609083D5
S11300B090819E7F90838093C4008C9188608C9300
S11300C080818F7C80838081877F80830895E0ECAA
S11300D0F0E0908195FFFDCF8093C6000895EF92E4
S11300E0FF920F931F93CF93DF93FC019C013695EE
S11300F0279536952795ABE7B4E10E948501EC017D
S1130100D695C7959E01ADECBCEC0E9485019695F1
S1130110879596958795969587959C01220F331F11
S1130120880F991F880F991F880F991F820F931F9B
S1130130C81BD90B9F010E948501AC0156954795B8
S113014056954795569547959A010E94850196952F
S1130150879596958795969587959C01220F331FD1
S1130160880F991F880F991F880F991F820F931F5B
S11301708A01081B190BCA01880F991F440F551FC8
S1130180440F551F440F551F480F591F7F01E41A90
S1130190F50A8C2FCC2391F0805D0E94670080E3E8
S11301A0800F0E94670080E38E0D0E9467008CE23E
S11301B00E94670080E20E9467001BC0002379F060
S11301C080E3800F0E94670080E38E0D0E94670029
S11301D08CE20E94670080E20E9467000AC080E30C
S11301E08E0D0E9467008CE20E94670080E20E94EC
S11301F06700DF91CF911F910F91FF90EF900895C9
S1130200CF93DF9300D000D0CDB7DEB78CE090E081
S11302100E94480082E090E09A8389831B8281E0F7
S11302208C8341E04C8389819A810397B8F089815A
S11302309A8180FF0AC022E030E009C089819A8156
S1130240B9010E947101892B11F41C8207C02F5F30
S11302503F4F89819A812817390780F38C8188233D
S113026069F0EB8189819A81F0E0EE0FFF1FE05085
S1130270FF4F918380838B818F5F8B8389819A81E8
S113028001969A83898389819A818D32914050F2B3
S11302901B8200EC10E0F801808185FD07C083EF2C
S11302A091E00197F1F700C00000F5CFEB81F0E099
S11302B0EE0FFF1FE050FF4F808191810E946F007D
S11302C08B818F5F8B838B818F3308F01B829FE33D
S11302D0EDE0F3E09150E040F040E1F700C00000B1
S11302E0DACFAA1BBB1B51E107C0AA1FBB1FA6176D
S11302F0B70710F0A61BB70B881F991F5A95A9F7CB
S113030080959095BC01CD010895A29FB001B39F43
S1130310C001A39F700D811D1124911DB29F700D0A
S10F0320811D1124911D0895F894FFCF55
S9030000FC
