S016000041546D6567612074657374696E672E73726563C1
S11300000C9434000C9446000C9446000C94460066
S11300100C9446000C9446000C9446000C94460044
S11300200C9446000C9446000C9446000C94460034
S11300300C9446000C9446000C9446000C94460024
S11300400C9446000C9446000C9446000C94460014
S11300500C9446000C9446000C9446000C94460004
S11300600C9446000C94460011241FBECFEFD8E038
S1130070DEBFCDBF21E0A0E0B1E001C01D92A03001
S1130080B207E1F70E946D000C948A000C94000002
S1130090E2ECF0E090819F739083A1ECB0E09C913E
S11300A09B7F9C93908194609083908192609083D5
S11300B090819E7F90838093C4008C9188608C9300
S11300C080818F7C80838081877F80830895909155
S11300D0C00091118093C60008958CE090E00E94C6
S11300E04800C0ECD0E08881811107C083EF91E023
S11300F00197F1F700C00000F6CF83E30E94670088
S11301009FE32DE083E0915020408040E1F700C060
S10B01100000E9CFF894FFCFD1
S9030000FC
