:100000000C9434000C9451000C9451000C94510049
:100010000C9451000C9451000C9451000C9451001C
:100020000C9451000C9451000C9451000C9451000C
:100030000C9451000C9451000C9451000C945100FC
:100040000C9451000C9451000C9451000C945100EC
:100050000C9451000C9451000C9451000C945100DC
:100060000C9451000C94510011241FBECFEFD8E026
:10007000DEBFCDBF11E0A0E0B1E0EAE0F9E002C0F0
:1000800005900D92A831B107D9F721E0A8E1B1E0C0
:1000900001C01D92A332B207E1F70E94CF000C9479
:1000A00083040C940000EAE7F0E080E8808380E4B9
:1000B00080937C0080818460808310927B0008950F
:1000C000ECE7F0E09081907F90839081892B808392
:1000D000EAE7F0E080818064808380917A0084FF89
:1000E000FCCF209178008091790090E0982F8827AC
:1000F000822B08959C01A8E8B3E10E9474042FEFBD
:1001000033E040E050E00E945204C90108958F920C
:100110009F92AF92BF92CF92DF92EF92FF920F9396
:100120001F93CF93DF938C01D62FC0E0C12CD12C2D
:10013000760116C0EC2FF0E0EE0FFF1FE00FF11F6D
:10014000A081B1819D010E9474040E9469039B01FA
:10015000AC01C701B6010E945C026B017C01CF5F5C
:10016000CD1740F36D2F70E080E090E00E946903AE
:100170004B015C01A5019401C701B6010E94C802B0
:100180000E94FD03DF91CF911F910F91FF90EF909F
:10019000DF90CF90BF90AF909F908F900895FF9287
:1001A0000F931F93CF93DF93CDB7DEB7C05AD1091A
:1001B0000FB6F894DEBF0FBECDBF0E9453008CE097
:1001C00090E00E943E0180E00E946000F12C0F2D23
:1001D00010E080E00E9460000E947A00000F111F72
:1001E000E1E0F0E0EC0FFD1FE00FF11F9183808351
:1001F00081E00E9460000E947A00E1E5F0E0EC0FEF
:10020000FD1FE00FF11F91838083F39488E2F812C1
:10021000DECF60E180E091E00E94FF010E941B02BE
:1002200048E2BE016F5A7F4FCE0101960E94220222
:100230000E941B020E941B0265E081E191E00E9486
:10024000FF010E941B0268E2CE0101960E94870016
:100250000E943A03CB010E945D010E94E40180E00C
:1002600090E0C056DF4F0FB6F894DEBF0FBECDBF93
:10027000DF91CF911F910F91FF900895E2ECF0E094
:1002800090819F739083A1ECB0E09C919B7F9C93A5
:1002900090819460908390819260908390819E7F02
:1002A00090838093C4008C9188608C9380818F7C34
:1002B00080838081877F808308954F925F926F92C1
:1002C0007F928F929F92AF92BF92EF92FF920F9385
:1002D0001F93CF937C018BE0E8E1F1E0DF011D92F9
:1002E0008A95E9F7C0E00F2E812CFAEC9F2EFAE9EF
:1002F000AF2EFBE3BF2EF02D24C00C2F10E0B70172
:1003000080E090E0A50194010E9452040F2EFAE0D3
:100310004F2E512C612C712CF02DCA01B901A30173
:1003200092010E945204605DF801E85EFE4F608316
:10033000C501B401A30192010E94520449015A016E
:10034000CF5FCA30D0F280E008C0E82FF0E0E85E6E
:10035000FE4F9081903321F48F5F8A30B0F380E0BC
:10036000811118C01AC0292F30E0A901480F511D72
:100370004A3051052CF0F901E85EFE4F10820DC0A5
:10038000FA01E85EFE4F4081F901E85EFE4F4083CE
:100390009F5F01C090E09B3030F388E191E0CF9106
:1003A0001F910F91FF90EF90BF90AF909F908F9013
:1003B0007F906F905F904F9008959091C00095FF4F
:1003C000FCCF8093C60008950F931F93CF938C01A9
:1003D000C0E00FC0F801EC0FF11D8081882359F0B7
:1003E0000E94DD0183EC99E00197F1F700C0000065
:1003F000CF5FC03278F3CF911F910F9108950F9383
:100400001F93CF93DF938C01D62FC0E00DC0F8016E
:10041000EC0FF11D80810E94DD0183EC99E00197D2
:10042000F1F700C00000CF5FCD1788F3DF91CF91C7
:100430001F910F9108958AE00E94DD018DE00E94D6
:10044000DD010895CF92DF92EF92FF920F931F93F9
:10045000CF93DF936C017B01042F10E021C0C12FEB
:10046000D0E0CC0FDD1FF601EC0FFD1F80819181E4
:100470000E945D010E94E4018CE20E94DD0180E2A5
:100480000E94DD0189E00E94DD01CE0DDF1D888123
:1004900099810E945D010E94E4010E941B021F5F7E
:1004A0001017E8F2DF91CF911F910F91FF90EF901D
:1004B000DF90CF9008955058BB27AA270E9473025F
:1004C0000C94BD030E94AF0338F00E94B60320F0E5
:1004D00039F49F3F19F426F40C94AC030EF4E09524
:1004E000E7FB0C94A603E92F0E94CE0358F3BA173A
:1004F000620773078407950720F079F4A6F50C943A
:10050000F0030EF4E0950B2EBA2FA02D0B01B901CC
:1005100090010C01CA01A0011124FF27591B99F079
:10052000593F50F4503E68F11A16F040A22F232F85
:10053000342F4427585FF3CF469537952795A795D5
:10054000F0405395C9F77EF41F16BA0B620B730B7C
:10055000840BBAF09150A1F0FF0FBB1F661F771FED
:10056000881FC2F70EC0BA0F621F731F841F48F4A2
:10057000879577956795B795F7959E3F08F0B0CF2B
:100580009395880F08F09927EE0F97958795089512
:100590000E94DC020C94BD030E94B60358F00E9436
:1005A000AF0340F029F45F3F29F00C94A6035111EA
:1005B0000C94F1030C94AC030E94CE0368F39923CE
:1005C000B1F3552391F3951B550BBB27AA2762174F
:1005D0007307840738F09F5F5F4F220F331F441F5C
:1005E000AA1FA9F335D00E2E3AF0E0E832D0915090
:1005F0005040E695001CCAF72BD0FE2F29D0660F7D
:10060000771F881FBB1F261737074807AB07B0E8BF
:1006100009F0BB0B802DBF01FF2793585F4F3AF0C5
:100620009E3F510578F00C94A6030C94F1035F3FB4
:10063000E4F3983ED4F3869577956795B795F7954B
:100640009F5FC9F7880F911D9695879597F9089533
:10065000E1E0660F771F881FBB1F621773078407CF
:10066000BA0720F0621B730B840BBA0BEE1F88F7DE
:10067000E09508950E94D60388F09F5798F0B92F0F
:100680009927B751B0F0E1F0660F771F881F991FC7
:100690001AF0BA95C9F714C0B13091F00E94F00376
:1006A000B1E008950C94F003672F782F8827B85F86
:1006B00039F0B93FCCF3869577956795B395D9F71F
:1006C0003EF490958095709561957F4F8F4F9F4F29
:1006D0000895E89409C097FB3EF490958095709535
:1006E00061957F4F8F4F9F4F9923A9F0F92F96E97E
:1006F000BB279395F695879577956795B795F111F3
:10070000F8CFFAF4BB0F11F460FF1BC06F5F7F4F8F
:100710008F4F9F4F16C0882311F096E911C07723A1
:1007200021F09EE8872F762F05C0662371F096E8AA
:10073000862F70E060E02AF09A95660F771F881F79
:10074000DAF7880F9695879597F9089597F99F6737
:1007500080E870E060E008959FEF80EC0895002449
:100760000A941616170618060906089500240A9416
:1007700012161306140605060895092E0394000C9C
:1007800011F4882352F0BB0F40F4BF2B11F460FF2B
:1007900004C06F5F7F4F8F4F9F4F089557FD905854
:1007A000440F551F59F05F3F71F04795880F97FB35
:1007B000991F61F09F3F79F08795089512161306EF
:1007C0001406551FF2CF4695F1DF08C0161617061E
:1007D0001806991FF1CF8695710561050894089553
:1007E000E894BB2766277727CB0197F9089519F47A
:1007F00016F40C94AC030C943D040E94D603B8F399
:100800009923C9F3B6F39F57550B87FF0E944B04FA
:100810000024A0E640EA900180585695979528F468
:10082000805C660F771F881F20F026173707480760
:1008300030F4621B730B840B202931294A2BA695B7
:1008400017940794202531254A2758F7660F771FFC
:10085000881F20F026173707480730F4620B730B08
:10086000840B200D311D411DA09581F7B901842F06
:100870009158880F9695879508959F3F31F0915034
:1008800020F4879577956795B795880F911D969574
:10089000879597F9089591505040660F771F881FEC
:1008A000D2F70895A1E21A2EAA1BBB1BFD010DC0B1
:1008B000AA1FBB1FEE1FFF1FA217B307E407F50710
:1008C00020F0A21BB30BE40BF50B661F771F881FEC
:1008D000991F1A9469F760957095809590959B0182
:1008E000AC01BD01CF010895A29FB001B39FC0012B
:1008F000A39F700D811D1124911DB29F700D811D4C
:0A0900001124911D0895F894FFCF13
:10090A00566F6C746167652C2043757272656E74DC
:08091A0000524D53205600006D
:00000001FF
