:100000000C9434000C943E000C943E000C943E0082
:100010000C943E000C943E000C943E000C943E0068
:100020000C943E000C943E000C943E000C943E0058
:100030000C943E000C943E000C943E000C943E0048
:100040000C943E000C943E000C943E000C943E0038
:100050000C943E000C943E000C943E000C943E0028
:100060000C943E000C943E0011241FBECFEFD8E04C
:10007000DEBFCDBF0E9472000C9489000C9400007A
:10008000EAE7F0E080E8808310927B008081846062
:1000900080830895ECE7F0E09081907F90839081D9
:1000A000892B8083EAE7F0E08081806480838091FF
:1000B0007A0084FFFCCF8091790090E0982F882708
:1000C00020917800822B0895AC0160E070E0DB01A4
:1000D000CA01880F991FAA1FBB1F840F951FA61F57
:1000E000B71F0895CF93DF9300D0CDB7DEB71A8244
:1000F00019820E94400089EF90E00197F1F700C05B
:10010000000082E00E944A000E9464009A83898372
:06011000F2CFF894FFCFCE
:00000001FF
