S00F00004C6162344144432E737265630A
S11300000C9434000C9451000C9451000C94510045
S11300100C9451000C9451000C9451000C94510018
S11300200C9451000C9451000C9451000C94510008
S11300300C9451000C9451000C9451000C945100F8
S11300400C9451000C9451000C9451000C945100E8
S11300500C9451000C9451000C9451000C945100D8
S11300600C9451000C94510011241FBECFEFD8E022
S1130070DEBFCDBF11E0A0E0B1E0EEEAF5E002C0E2
S113008005900D92A231B107D9F721E0A2E1B1E0C8
S113009001C01D92A831B207E1F70E948B000C94B5
S11300A0D5020C940000EAE7F0E080E880838081C8
S11300B08460808310927B000895ECE7F0E09081E7
S11300C0907F90839081892B8083EAE7F0E08081A0
S11300D0806480832FE38DE093E021508040904042
S11300E0E1F700C000008091790090E0982F882704
S11300F020917800822B0895BC0180E090E00E945A
S1130100B8012AEF38E14CE950E40E941E020E9433
S11301108901CB010895CF93DF9300D0CDB7DEB72B
S11301201A8219820E9453008CE090E00E94B00071
S113013083EF91E00197F1F700C0000082E00E9494
S11301405D000E947C009A83898389E390E30E9486
S1130150CF0040E1BC0180E091E00E945501E8CF6E
S1130160E2ECF0E090819F739083A1ECB0E09C916D
S11301709B7F9C9390819460908390819260908304
S113018090819E7F90838093C4008C9188608C932F
S113019080818F7C80838081877F808308954F92C4
S11301A05F926F927F92AF92BF92CF92DF92EF9263
S11301B0FF920F931F93CF935C0186E0E2E1F1E09D
S11301C0DF011D928A95E9F7C0E00F2EF0EACF2EE9
S11301D0F6E8DF2EEE24E394F12CF02D23C00C2F4F
S11301E010E0B50180E090E0A70196010E94B302FF
S11301F00F2EFAE04F2E512C612C712CF02DCA01D8
S1130200B901A30192010E94B302F801EE5EFE4F10
S11302106083C701B601A30192010E94B302690180
S11302207A01CF5FC530D8F280E008C0E82FF0E053
S1130230EE5EFE4F9081903321F48F5F8530B0F3F2
S113024080E0811118C01AC0292F30E0A901480F9D
S1130250511D443051052CF0F901EE5EFE4F108221
S11302600DC0FA01EE5EFE4F4081F901EE5EFE4FD5
S113027040839F5F01C090E0963030F382E191E0CB
S1130280CF911F910F91FF90EF90DF90CF90BF908F
S1130290AF907F906F905F904F9008959091C000C1
S11302A095FFFCCF8093C6000895EF92FF920F93C1
S11302B01F93CF93DF937C018B01D42FC0E00DC03B
S11302C0F701EC0FF11D80810E944E0183EC99E04F
S11302D00197F1F700C00000CF5FCD1788F3C0E0AD
S11302E00FC0F801EC0FF11D8081882359F00E94A2
S11302F04E0183EC99E00197F1F700C00000CF5F55
S1130300CA3078F3DF91CF911F910F91FF90EF9056
S113031008950E94FD0188F09F5798F0B92F9927FE
S1130320B751B0F0E1F0660F771F881F991F1AF0DC
S1130330BA95C9F714C0B13091F00E941702B1E028
S113034008950C941702672F782F8827B85F39F027
S1130350B93FCCF3869577956795B395D9F73EF475
S113036090958095709561957F4F8F4F9F4F08951D
S1130370E89409C097FB3EF490958095709561953B
S11303807F4F8F4F9F4F9923A9F0F92F96E9BB27F1
S11303909395F695879577956795B795F111F8CF6D
S11303A0FAF4BB0F11F460FF1BC06F5F7F4F8F4FD8
S11303B09F4F16C0882311F096E911C0772321F0CE
S11303C09EE8872F762F05C0662371F096E8862F66
S11303D070E060E02AF09A95660F771F881FDAF7BD
S11303E0880F9695879597F9089557FD9058440F6F
S11303F0551F59F05F3F71F04795880F97FB991F80
S113040061F09F3F79F0879508951216130614063C
S1130410551FF2CF4695F1DF08C0161617061806C9
S1130420991FF1CF86957105610508940895E894A4
S1130430BB2766277727CB0197F908950E943102DD
S11304400C94A2020E94940238F00E949B0220F0B5
S1130450952311F00C948B020C94910211240C94AA
S113046018020E94F50170F3959FC1F3950F50E0B7
S1130470551F629FF001729FBB27F00DB11D639F52
S1130480AA27F00DB11DAA1F649F6627B00DA11DF8
S1130490661F829F2227B00DA11D621F739FB00D9E
S11304A0A11D621F839FA00D611D221F749F33270E
S11304B0A00D611D231F849F600D211D822F762FA7
S11304C06A2F11249F5750409AF0F1F088234AF084
S11304D0EE0FFF1FBB1F661F771F881F91505040F0
S11304E0A9F79E3F510580F00C948B020C941802DE
S11304F05F3FE4F3983ED4F3869577956795B79577
S1130500F795E7959F5FC1F7FE2B880F911D969590
S1130510879597F9089597F99F6780E870E060E000
S113052008959FEF80EC089500240A941616170688
S113053018060906089500240A94121613061406D0
S113054005060895092E0394000C11F4882352F033
S1130550BB0F40F4BF2B11F460FF04C06F5F7F4FEB
S11305608F4F9F4F0895A1E21A2EAA1BBB1BFD01BA
S11305700DC0AA1FBB1FEE1FFF1FA217B307E4077E
S1130580F50720F0A21BB30BE40BF50B661F771FD6
S1130590881F991F1A9469F76095709580959095B6
S11105A09B01AC01BD01CF010895F894FFCF7B
S11305AE5265616420766F6C74616765206973208F
S10505BE000037
S9030000FC
