S00F00004C6162344144432E737265630A
S11300000C9434000C9451000C9451000C94510045
S11300100C9451000C9451000C9451000C94510018
S11300200C9451000C9451000C9451000C94510008
S11300300C9451000C9451000C9451000C945100F8
S11300400C9451000C9451000C9451000C945100E8
S11300500C9451000C9451000C9451000C945100D8
S11300600C9451000C94510011241FBECFEFD8E022
S1130070DEBFCDBF11E0A0E0B1E0E4E6F4E002C0F1
S113008005900D92A231B107D9F721E0A2E1B1E0C8
S113009001C01D92A831B207E1F70E9487000C94B9
S11300A030020C940000EAE7F0E080E8808380E40A
S11300B080937C0080818460808310927B0008950B
S11300C0ECE7F0E09081907F90839081892B80838E
S11300D0EAE7F0E080818064808380917A0084FD87
S11300E0FCCF209178008091790090E0982F8827A8
S11300F0822B08959C01A8E8B3E10E9421022FEF0E
S113010033E040E050E00E94FF01C9010895FF92EE
S11301100F931F93CF93DF93CDB7DEB7C25AD109A4
S11301200FB6F894DEBF0FBECDBF1A8219820E94AB
S113013053008CE090E00E94E60082E00E946000A0
S1130140F12C83EF91E00197F1F700C000000F2D2F
S113015010E080E00E9460000E947A00000F111FEE
S1130160E1E0F0E0EC0FFD1FE00FF11F93838283C9
S113017081E00E9460000E947A00E3E5F0E0EC0F69
S1130180FD1FE00FF11F91838083F39498E2F9122D
S1130190D8CF60E180E091E00E94A6010E94C201F4
S11301A0BE016D5A7F4FCE0103960E94C90180E0C3
S11301B090E0CE55DF4F0FB6F894DEBF0FBECDBF33
S11301C0DF91CF911F910F91FF900895E2ECF0E041
S11301D090819F739083A1ECB0E09C919B7F9C9352
S11301E090819460908390819260908390819E7FAF
S11301F090838093C4008C9188608C9380818F7CE1
S113020080838081877F808308954F925F926F926D
S11302107F928F929F92AF92BF92EF92FF920F9331
S11302201F93CF937C0186E0E2E1F1E0DF011D92B0
S11302308A95E9F7C0E00F2EF0E18F2EF7E29F2EAA
S1130240A12CB12CF02D24C00C2F10E0B70180E0BC
S113025090E0A50194010E94FF010F2EFAE04F2EB9
S1130260512C612C712CF02DCA01B901A30192010A
S11302700E94FF01605DF801EE5EFE4F6083C501E0
S1130280B401A30192010E94FF0149015A01CF5F09
S1130290C530D0F280E008C0E82FF0E0EE5EFE4FFB
S11302A09081903321F48F5F8530B0F380E0811129
S11302B018C01AC0292F30E0A901480F511D45303C
S11302C051052CF0F901EE5EFE4F10820DC0FA01CB
S11302D0EE5EFE4F4081F901EE5EFE4F40839F5F6C
S11302E001C090E0963030F382E191E0CF911F910C
S11302F00F91FF90EF90BF90AF909F908F907F9061
S11303006F905F904F9008959091C00095FFFCCF3F
S11303108093C60008950F931F93CF938C01C0E080
S11303200FC0F801EC0FF11D8081882359F00E9461
S1130330840183EC99E00197F1F700C00000CF5FDE
S1130340C03278F3CF911F910F9108950F931F93AB
S1130350CF93DF938C01D62FC0E00DC0F801EC0FD2
S1130360F11D80810E94840183EC99E00197F1F7EB
S113037000C00000CF5FCD1788F3DF91CF911F91AC
S11303800F9108958AE00E9484018DE00E94840107
S11303900895CF92DF92EF92FF921F93CF93DF9352
S11303A06C017B0110E021C0C12FD0E0CC0FDD1F18
S11303B0F601EC0FFD1F808191810E9405010E94CE
S11303C08B018CE20E94840180E20E94840189E016
S11303D00E948401CE0DDF1D888199810E94050150
S11303E00E948B010E94C2011F5F1832E8F2DF9164
S11303F0CF911F91FF90EF90DF90CF900895A1E2ED
S11304001A2EAA1BBB1BFD010DC0AA1FBB1FEE1F8A
S1130410FF1FA217B307E407F50720F0A21BB30BD5
S1130420E40BF50B661F771F881F991F1A9469F751
S113043060957095809590959B01AC01BD01CF01AD
S11304400895A29FB001B39FC001A39F700D811DA9
S11304501124911DB29F700D811D1124911D0895C9
S1070460F894FFCF3A
S1130464566F6C746167652C2043757272656E7483
S1050474000082
S9030000FC
