:100000000C9434000C9451000C9451000C94510049
:100010000C9451000C9451000C9451000C9451001C
:100020000C9451000C9451000C9451000C947A01E2
:100030000C9451000C9451000C9451000C945100FC
:100040000C9484010C9451000C9451000C945100B8
:100050000C9451000C9451000C9451000C945100DC
:100060000C9451000C94510011241FBECFEFD8E026
:10007000DEBFCDBF11E0A0E0B1E0E0E6F3E002C0FA
:1000800005900D92AE30B107D9F721E0AEE0B1E0B6
:1000900001C01D92A131B207E1F70E9449010C9401
:1000A000AE010C94000018B8E82FF0E0E050FF4FCC
:1000B000608147E024C058B181E090E09C01042EAB
:1000C00002C0220F331F0A94E2F7862F90E08223AA
:1000D0009323042E02C0959587950A94E2F78295A2
:1000E0009295907F9827807F9827852B88B986B135
:1000F000886086B986B1886086B918B841504423B3
:10010000D4F686B1806286B986B1806286B90895D8
:10011000CF93C62F9FEF9BB90E945300EC2FF0E0C6
:10012000E75FFE4F808190E0809590959BB1892399
:100130008BB9CF9108950F931F93CF93DF938C01C9
:100140009C01369527953695279536952795A5ECEC
:10015000B0E20E949F01AC01529542954F70452735
:100160005F7045279A01ADECBCEC0E949F0196950B
:10017000879596958795969587959C01220F331FB5
:10018000880F991F880F991F880F991F820F931F3F
:1001900061E0242F281B822F0E94880089EF90E0C5
:1001A0000197F1F700C00000980136952795369524
:1001B0002795ABE7B4E10E949F01AC0156954795A6
:1001C0009A01ADECBCEC0E949F019695879596959F
:1001D0008795969587959C01220F331F880F991F4D
:1001E000880F991F880F991F820F931F62E0242F99
:1001F000281B822F0E94880089EF90E00197F1F779
:1002000000C000009801ADECBCEC0E949F01EC0125
:10021000D695C795D695C795D695C7959E010E9448
:100220009F019695879596958795969587959C01BC
:10023000220F331F880F991F880F991F880F991F4E
:10024000820F931F63E02C2F281B822F0E948800AF
:1002500089EF90E00197F1F700C00000CE01880F10
:10026000991FCC0FDD1FCC0FDD1FCC0FDD1FC80F7A
:10027000D91F64E0802F8C1B0E94880089EF90E0DA
:100280000197F1F700C00000DF91CF911F910F910E
:100290000895CF93DF9300D000D01F92CDB7DEB783
:1002A0008EEF8AB98FEF87B984B919821A8281E0FB
:1002B00097E29C838B831D828D81823330F08B810A
:1002C0009C8101969C838B831D828B819C810E94E3
:1002D0009B008FE99FE00197F1F700C000008D813E
:1002E0008F5F8D838B819C818031974228F31C82A4
:1002F0001B82E2CF1F920F920FB60F9211240F9024
:100300000FBE0F901F9018951F920F920FB60F926D
:1003100011248F939F9380911001882349F080913D
:100320000E0190910F01019690930F0180930E01A1
:100330009F918F910F900FBE0F901F901895A29FC5
:10034000B001B39FC001A39F700D811D1124911DA9
:10035000B29F700D811D1124911D0895F894FFCF57
:0E0360003F065B4F666D7D077F671020408073
:00000001FF
