S00E00004C61623650322E737265634F
S11300000C9434000C9451000C9451000C94510045
S11300100C9451000C9451000C9451000C94510018
S11300200C9451000C9451000C9451000C94AE00AB
S11300300C9451000C9451000C9451000C945100F8
S11300400C94B8000C9451000C9451000C94510081
S11300500C9451000C9451000C9451000C945100D8
S11300600C9451000C94510011241FBECFEFD8E022
S1130070DEBFCDBF11E0A0E0B1E0EAEAF1E002C0EA
S113008005900D92AA30B107D9F721E0AAE0B1E0BA
S113009001C01D92AD30B207E1F70E947F000C94BD
S11300A0D3000C94000018B8E82FF0E0E050FF4FA4
S11300B0608147E058B181E090E09C01042E02C0C9
S11300C0220F331F0A94E2F7862F90E082239323B2
S11300D0042E02C0959587950A94E2F7829592952D
S11300E0907F9827807F9827852B88B986B1886070
S11300F086B918B84150DECF1BB80E945300CF9385
S1130100DF9300D0CDB7DEB780EF8AB98EE087B930
S11301108FEF84B919821A828FE493EC0197F1F777
S113012000C000008A81882321F01F9B02C01A822C
S11301300AC08A81811107C01F9905C089818F5F18
S1130140898381E08A838A81882321F061E080E0C9
S11301500E947C0061E087E00E947C001F920F9265
S11301600FB60F9211240F900FBE0F901F90189589
S11301701F920F920FB60F9211248F939F93809129
S11301800C01882349F080910A0190910B0101969A
S113019090930B0180930A019F918F910F900FBE52
S10D01A00F901F901895F894FFCFFC
S10D01AA3F065B4F666D7D077F671B
S9030000FC
