S00E00004C61623650322E737265634F
S11300000C9434000C9451000C9451000C94510045
S11300100C9451000C9451000C9451000C94510018
S11300200C9451000C9451000C9451000C94AE00AB
S11300300C9451000C9451000C9451000C945100F8
S11300400C94B8000C9451000C9451000C94510081
S11300500C9451000C9451000C9451000C945100D8
S11300600C9451000C94510011241FBECFEFD8E022
S1130070DEBFCDBF11E0A0E0B1E0EAEAF1E002C0EA
S113008005900D92AA30B107D9F721E0AAE0B1E0BA
S113009001C01D92AD30B207E1F70E948C000C94B0
S11300A0D3000C94000018B8E82FF0E0E050FF4FA4
S11300B0608147E024C058B181E090E09C01042EA7
S11300C002C0220F331F0A94E2F7862F90E08223A6
S11300D09323042E02C0959587950A94E2F782959E
S11300E09295907F9827807F9827852B88B986B131
S11300F0886086B986B1886086B918B841504423AF
S1130100D4F686B1806286B986B1806286B90895D4
S11301101BB80E9453000895CF93DF9300D01F9221
S1130120CDB7DEB78EEF8AB98FEF87B984B919825C
S11301301A821B828B810E9488002FE78AE196E055
S1130140215080409040E1F700C000008B818F5F18
S11301508B838B818A3070F31B82ECCF1F920F92BA
S11301600FB60F9211240F900FBE0F901F90189589
S11301701F920F920FB60F9211248F939F93809129
S11301800C01882349F080910A0190910B0101969A
S113019090930B0180930A019F918F910F900FBE52
S10D01A00F901F901895F894FFCFFC
S10D01AA3F065B4F666D7D077F671B
S9030000FC
