S00C00004C6162352E73726563D4
S11300000C9434000C9446000C9446000C94460066
S11300100C9446000C94DA000C9446000C944600B0
S11300200C9446000C9446000C9446000C94460034
S11300300C9446000C9446000C9446000C94460024
S11300400C94A9000C9446000C9446000C944600B1
S11300500C9446000C9446000C9446000C94460004
S11300600C9446000C94460011241FBECFEFD8E038
S1130070DEBFCDBF21E0A0E0B1E001C01D92A03100
S1130080B207E1F70E944C000C94A8030C94000002
S113009083B1806283B90895CF93DF93CDB7DEB780
S11300A029970FB6F894DEBF0FBECDBF0E94090199
S11300B08CE090E00E94220119821A821B821C8229
S11300C01D821E821F82188684B18FEF84B987B186
S11300D017B88AB11AB81986809100018823E1F310
S11300E0809101016091020170E0762F6627680F0C
S11300F0711D072E000C880B990B0E948D022DEBAD
S113010037E346E859E30E94190369837A838B83B2
S11301109C8329813A814B815C8160E070E080E8B6
S11301209FE30E94EA016D837E838F8398876D81AC
S11301307E818F8198850E945C02CB010E944101DF
S11301400E94C8010E94E301109202011092000172
S1130150C3CF1F920F920FB60F9211242F933F9388
S11301604F935F936F937F938F939F93AF93BF93BB
S1130170EF93FF930E94480080910401882349F083
S11301808091020190910301019690930301809361
S11301900201FF91EF91BF91AF919F918F917F9158
S11301A06F915F914F913F912F910F900FBE0F90E0
S11301B01F9018951F920F920FB60F9211248F93D0
S11301C0EF93FF934A9B10C081E080930401109247
S11301D00301109202011092000116BCE9E6F0E05E
S11301E080818E7F80830DC086B580930101E9E60E
S11301F0F0E08081816080831092040181E080932B
S11302000001FF91EF918F910F900FBE0F901F90FF
S1130210189514BC84E085BDEEE6F0E08081816031
S11302208083E9E6F0E0808183608083E8E6F0E0A3
S1130230808184608083EDE6F0E080818460808347
S113024078940895E2ECF0E090819F739083A1ECA0
S1130250B0E09C919B7F9C9390819460908390816B
S11302609260908390819E7F90838093C4008C9150
S113027088608C9380818F7C80838081877F80835A
S113028008954F925F926F927F928F929F92AF9256
S1130290BF92EF92FF920F931F93CF937C018BE059
S11302A0E5E0F1E0DF011D928A95E9F7C0E00F2E49
S11302B0812CFAEC9F2EFAE9AF2EFBE3BF2EF02D32
S11302C024C00C2F10E0B70180E090E0A501940158
S11302D00E9486030F2EFAE04F2E512C612C712CB4
S11302E0F02DCA01B901A30192010E948603605D49
S11302F0F801EB5FFE4F6083C501B401A3019201D5
S11303000E94860349015A01CF5FCA30D0F280E0CF
S113031008C0E82FF0E0EB5FFE4F9081903321F4AA
S11303208F5F8A30B0F380E0811118C01AC0292F82
S113033030E0A901480F511D4A3051052CF0F90154
S1130340EB5FFE4F10820DC0FA01EB5FFE4F408160
S1130350F901EB5FFE4F40839F5F01C090E09B304B
S113036030F385E091E0CF911F910F91FF90EF90D2
S1130370BF90AF909F908F907F906F905F904F90C1
S113038008959091C00095FFFCCF8093C600089516
S11303900F931F93CF938C01C0E00FC0F801EC0FB3
S11303A0F11D8081882359F00E94C10183EC99E0FA
S11303B00197F1F700C00000CF5FC03278F3CF910E
S11303C01F910F9108958AE00E94C1018DE00E945F
S11303D0C10108950E94FE010C94DF020E94D8021C
S11303E058F00E94D10240F029F45F3F29F00C94A8
S11303F0C80251110C9413030C94CE020E94F00213
S113040068F39923B1F3552391F3951B550BBB273F
S1130410AA2762177307840738F09F5F5F4F220F84
S1130420331F441FAA1FA9F335D00E2E3AF0E0E87B
S113043032D091505040E695001CCAF72BD0FE2FC5
S113044029D0660F771F881FBB1F26173707480759
S1130450AB07B0E809F0BB0B802DBF01FF27935811
S11304605F4F3AF09E3F510578F00C94C8020C940B
S113047013035F3FE4F3983ED4F38695779567952D
S1130480B795F7959F5FC9F7880F911D9695879546
S113049097F90895E1E0660F771F881FBB1F621765
S11304A073078407BA0720F0621B730B840BBA0B23
S11304B0EE1F88F7E09508950E94F80288F09F5790
S11304C098F0B92F9927B751B0F0E1F0660F771F74
S11304D0881F991F1AF0BA95C9F714C0B13091F06A
S11304E00E941203B1E008950C941203672F782F31
S11304F08827B85F39F0B93FCCF38695779567952F
S1130500B395D9F73EF490958095709561957F4F9A
S11305108F4F9F4F0895E89409C097FB3EF4909540
S11305208095709561957F4F8F4F9F4F9923A9F0C8
S1130530F92F96E9BB279395F69587957795679557
S1130540B795F111F8CFFAF4BB0F11F460FF1BC09B
S11305506F5F7F4F8F4F9F4F16C0882311F096E92E
S113056011C0772321F09EE8872F762F05C06623DC
S113057071F096E8862F70E060E02AF09A95660F95
S1130580771F881FDAF7880F9695879597F908954E
S113059097F99F6780E870E060E008959FEF80EC32
S11305A0089500240A9416161706180609060895D5
S11305B000240A9412161306140605060895092E3B
S11305C00394000C11F4882352F0BB0F40F4BF2BAA
S11305D011F460FF04C06F5F7F4F8F4F9F4F0895EA
S11305E057FD9058440F551F59F05F3F71F04795E0
S11305F0880F97FB991F61F09F3F79F087950895C5
S1130600121613061406551FF2CF4695F1DF08C0E3
S1130610161617061806991FF1CF86957105610500
S113062008940895E894BB2766277727CB0197F9A8
S113063008950E942C030C94DF020E94D10238F02A
S11306400E94D80220F0952311F00C94C8020C9457
S1130650CE0211240C9413030E94F00270F3959FB0
S1130660C1F3950F50E0551F629FF001729FBB27A5
S1130670F00DB11D639FAA27F00DB11DAA1F649F41
S11306806627B00DA11D661F829F2227B00DA11DF4
S1130690621F739FB00DA11D621F839FA00D611D7A
S11306A0221F749F3327A00D611D231F849F600D9B
S11306B0211D822F762F6A2F11249F5750409AF0C4
S11306C0F1F088234AF0EE0FFF1FBB1F661F771F50
S11306D0881F91505040A9F79E3F510580F00C941B
S11306E0C8020C9413035F3FE4F3983ED4F3869559
S11306F077956795B795F795E7959F5FC1F7FE2BBB
S1130700880F911D9695879597F90895A1E21A2E61
S1130710AA1BBB1BFD010DC0AA1FBB1FEE1FFF1FA1
S1130720A217B307E407F50720F0A21BB30BE40BF1
S1130730F50B661F771F881F991F1A9469F7609538
S11307407095809590959B01AC01BD01CF010895F2
S1070750F894FFCF47
S9030000FC
