S00C00004C6162352E73726563D4
S11300000C9434000C9446000C9446000C94460066
S11300100C9446000C9446000C9446000C94460044
S11300200C9446000C9446000C9446000C94460034
S11300300C9446000C9446000C9460000C9446000A
S11300400C9456000C9446000C9446000C94460004
S11300500C9446000C9446000C9446000C94460004
S11300600C9446000C94460011241FBECFEFD8E038
S1130070DEBFCDBF21E0A0E0B1E001C01D92A13000
S1130080B207E1F70E944C000C9495000C94000018
S113009083B1806283B908950E94890084B18FEF8F
S11300A084B987B117B88AB11AB8FFCF1F920F92DB
S11300B00FB60F9211240F900FBE0F901F9018953A
S11300C01F920F920FB60F9211242F933F934F93C9
S11300D05F936F937F938F939F93AF93BF93EF93AC
S11300E0FF938AE0809300010E944800109200016F
S11300F0FF91EF91BF91AF919F918F917F916F91FC
S11301005F914F913F912F910F900FBE0F901F90D1
S1130110189514BC84E085BD8EE487BDEEE6F0E05E
S111012080818360808378940895F894FFCFE3
S9030000FC
